:1000000000308A0018280000213084008313000883
:10001000031917280630F800F701F70B0D28F80B25
:100020000C287B30F700F70B1328800B0A280800F8
:1000300003081F39830083161F149F141F159F1177
:1000400007309C00831300308600860183128601EE
:10005000831686013F3083128600C830A100042039
:1000600083168601063083128600C830A100042062
:10007000831686015B3083128600C830A1000420FD
:10008000831686014F3083128600C830A1000420F9
:1000900083168601663083128600C830A1000420D2
:1000A000831686016D3083128600C830A1000420BB
:1000B000831686017D3083128600C830A10004209B
:1000C00083168601073083128600C830A100042001
:1000D000831686017F3083128600C830A100042079
:1000E000831686016F3083128600C830A100042079
:0400F0002828630059
:02400E00723FFF
:00000001FF
;PIC16F877A
;CRC=9DC1  CREATED="21-Oct-21 17:15"
