:1000000000308A0019280000223084008313000881
:10001000031918280330F800F701F70B0D28F80B27
:100020000C28E330F700F70B13280000800B0A2898
:10003000080003081F39830083161F149F141F151F
:100040009F1107309C008313061083120614831639
:100050008612831286161430A100FA30A200042002
:10006000A10B2D2883160610831206148316861200
:100070008312861283160613831206170430A1001A
:10008000FA30A2000420A10B402883160613831225
:10009000061383168613831286178316061083129F
:1000A000061083160611831206111030A100FA30D3
:1000B000A2000420A10B57288316061183120611F3
:1000C000831686108312861483168613831286176E
:1000D0000430A100FA30A2000420A10B6A28831684
:1000E0008610831286108316861383128613831656
:0400F000242863005D
:02400E00723FFF
:00000001FF
;PIC16F877A
;CRC=CF00  CREATED="21-Oct-21 15:49"
